{
  "_format": "hh-sol-artifact-1",
  "contractName": "VotingWithPermit",
  "sourceName": "contracts/VotingWithPermit.sol",
  "abi": [
    {
      "inputs": [
        {
          "internalType": "address",
          "name": "voteTokenAddress",
          "type": "address"
        },
        {
          "internalType": "string",
          "name": "name",
          "type": "string"
        }
      ],
      "stateMutability": "nonpayable",
      "type": "constructor"
    },
    {
      "inputs": [
        {
          "internalType": "uint256",
          "name": "deadline",
          "type": "uint256"
        }
      ],
      "name": "ERC2612ExpiredSignature",
      "type": "error"
    },
    {
      "inputs": [
        {
          "internalType": "address",
          "name": "signer",
          "type": "address"
        },
        {
          "internalType": "address",
          "name": "owner",
          "type": "address"
        }
      ],
      "name": "ERC2612InvalidSigner",
      "type": "error"
    },
    {
      "inputs": [
        {
          "internalType": "address",
          "name": "account",
          "type": "address"
        },
        {
          "internalType": "uint256",
          "name": "currentNonce",
          "type": "uint256"
        }
      ],
      "name": "InvalidAccountNonce",
      "type": "error"
    },
    {
      "inputs": [],
      "name": "InvalidShortString",
      "type": "error"
    },
    {
      "inputs": [
        {
          "internalType": "string",
          "name": "str",
          "type": "string"
        }
      ],
      "name": "StringTooLong",
      "type": "error"
    },
    {
      "anonymous": false,
      "inputs": [
        {
          "indexed": true,
          "internalType": "uint256",
          "name": "_numberOfProposal",
          "type": "uint256"
        },
        {
          "indexed": true,
          "internalType": "address",
          "name": "_delegatedVoter",
          "type": "address"
        },
        {
          "indexed": false,
          "internalType": "uint256",
          "name": "_votes",
          "type": "uint256"
        },
        {
          "indexed": false,
          "internalType": "bool",
          "name": "_yes",
          "type": "bool"
        }
      ],
      "name": "DelegateVoted",
      "type": "event"
    },
    {
      "anonymous": false,
      "inputs": [
        {
          "indexed": true,
          "internalType": "address",
          "name": "_from",
          "type": "address"
        },
        {
          "indexed": true,
          "internalType": "address",
          "name": "_to",
          "type": "address"
        },
        {
          "indexed": true,
          "internalType": "uint256",
          "name": "_numberOfProposal",
          "type": "uint256"
        },
        {
          "indexed": false,
          "internalType": "uint256",
          "name": "_votes",
          "type": "uint256"
        }
      ],
      "name": "Delegated",
      "type": "event"
    },
    {
      "anonymous": false,
      "inputs": [
        {
          "indexed": true,
          "internalType": "address",
          "name": "_from",
          "type": "address"
        },
        {
          "indexed": true,
          "internalType": "address",
          "name": "_to",
          "type": "address"
        },
        {
          "indexed": true,
          "internalType": "uint256",
          "name": "numberOfProposal",
          "type": "uint256"
        },
        {
          "indexed": false,
          "internalType": "uint256",
          "name": "votes",
          "type": "uint256"
        }
      ],
      "name": "DelegatedByPermit",
      "type": "event"
    },
    {
      "anonymous": false,
      "inputs": [],
      "name": "EIP712DomainChanged",
      "type": "event"
    },
    {
      "anonymous": false,
      "inputs": [
        {
          "indexed": true,
          "internalType": "address",
          "name": "_oldProposer",
          "type": "address"
        },
        {
          "indexed": true,
          "internalType": "address",
          "name": "_newProposer",
          "type": "address"
        }
      ],
      "name": "NewProposer",
      "type": "event"
    },
    {
      "anonymous": false,
      "inputs": [
        {
          "indexed": true,
          "internalType": "uint256",
          "name": "_numberOfProposal",
          "type": "uint256"
        }
      ],
      "name": "NoResult",
      "type": "event"
    },
    {
      "anonymous": false,
      "inputs": [
        {
          "indexed": true,
          "internalType": "uint256",
          "name": "_numberOfProposal",
          "type": "uint256"
        },
        {
          "indexed": false,
          "internalType": "uint256",
          "name": "_lastBlocks",
          "type": "uint256"
        }
      ],
      "name": "NowProposal",
      "type": "event"
    },
    {
      "anonymous": false,
      "inputs": [
        {
          "indexed": true,
          "internalType": "uint256",
          "name": "_numberOfProposal",
          "type": "uint256"
        },
        {
          "indexed": true,
          "internalType": "bool",
          "name": "_accepted",
          "type": "bool"
        }
      ],
      "name": "Result",
      "type": "event"
    },
    {
      "anonymous": false,
      "inputs": [
        {
          "indexed": true,
          "internalType": "uint256",
          "name": "_numberOfProposal",
          "type": "uint256"
        },
        {
          "indexed": true,
          "internalType": "address",
          "name": "_voter",
          "type": "address"
        },
        {
          "indexed": false,
          "internalType": "uint256",
          "name": "_votes",
          "type": "uint256"
        },
        {
          "indexed": false,
          "internalType": "bool",
          "name": "_yes",
          "type": "bool"
        }
      ],
      "name": "Voted",
      "type": "event"
    },
    {
      "inputs": [
        {
          "internalType": "address",
          "name": "_newProposer",
          "type": "address"
        }
      ],
      "name": "changeProposer",
      "outputs": [],
      "stateMutability": "nonpayable",
      "type": "function"
    },
    {
      "inputs": [
        {
          "internalType": "bytes32",
          "name": "_name",
          "type": "bytes32"
        },
        {
          "internalType": "uint256",
          "name": "lastBlocks",
          "type": "uint256"
        }
      ],
      "name": "createProposal",
      "outputs": [
        {
          "internalType": "uint256",
          "name": "numberOfProposal",
          "type": "uint256"
        }
      ],
      "stateMutability": "nonpayable",
      "type": "function"
    },
    {
      "inputs": [
        {
          "internalType": "address",
          "name": "to",
          "type": "address"
        },
        {
          "internalType": "uint256",
          "name": "numberOfProposal",
          "type": "uint256"
        },
        {
          "internalType": "uint256",
          "name": "votes",
          "type": "uint256"
        }
      ],
      "name": "delegate",
      "outputs": [],
      "stateMutability": "nonpayable",
      "type": "function"
    },
    {
      "inputs": [
        {
          "internalType": "uint256",
          "name": "numberOfProposal",
          "type": "uint256"
        },
        {
          "internalType": "uint256",
          "name": "votes",
          "type": "uint256"
        },
        {
          "internalType": "bool",
          "name": "yes",
          "type": "bool"
        }
      ],
      "name": "delegateVote",
      "outputs": [],
      "stateMutability": "nonpayable",
      "type": "function"
    },
    {
      "inputs": [],
      "name": "eip712Domain",
      "outputs": [
        {
          "internalType": "bytes1",
          "name": "fields",
          "type": "bytes1"
        },
        {
          "internalType": "string",
          "name": "name",
          "type": "string"
        },
        {
          "internalType": "string",
          "name": "version",
          "type": "string"
        },
        {
          "internalType": "uint256",
          "name": "chainId",
          "type": "uint256"
        },
        {
          "internalType": "address",
          "name": "verifyingContract",
          "type": "address"
        },
        {
          "internalType": "bytes32",
          "name": "salt",
          "type": "bytes32"
        },
        {
          "internalType": "uint256[]",
          "name": "extensions",
          "type": "uint256[]"
        }
      ],
      "stateMutability": "view",
      "type": "function"
    },
    {
      "inputs": [],
      "name": "locked",
      "outputs": [
        {
          "internalType": "bool",
          "name": "",
          "type": "bool"
        }
      ],
      "stateMutability": "view",
      "type": "function"
    },
    {
      "inputs": [
        {
          "internalType": "address",
          "name": "owner",
          "type": "address"
        }
      ],
      "name": "nonces",
      "outputs": [
        {
          "internalType": "uint256",
          "name": "",
          "type": "uint256"
        }
      ],
      "stateMutability": "view",
      "type": "function"
    },
    {
      "inputs": [
        {
          "internalType": "address",
          "name": "owner",
          "type": "address"
        },
        {
          "internalType": "address",
          "name": "spender",
          "type": "address"
        },
        {
          "internalType": "uint256",
          "name": "numberOfProposal",
          "type": "uint256"
        },
        {
          "internalType": "uint256",
          "name": "value",
          "type": "uint256"
        },
        {
          "internalType": "uint256",
          "name": "deadline",
          "type": "uint256"
        },
        {
          "internalType": "uint8",
          "name": "v",
          "type": "uint8"
        },
        {
          "internalType": "bytes32",
          "name": "r",
          "type": "bytes32"
        },
        {
          "internalType": "bytes32",
          "name": "s",
          "type": "bytes32"
        }
      ],
      "name": "permit",
      "outputs": [],
      "stateMutability": "nonpayable",
      "type": "function"
    },
    {
      "inputs": [
        {
          "internalType": "uint256",
          "name": "",
          "type": "uint256"
        }
      ],
      "name": "proposals",
      "outputs": [
        {
          "internalType": "bytes32",
          "name": "name",
          "type": "bytes32"
        },
        {
          "internalType": "uint256",
          "name": "deadline",
          "type": "uint256"
        },
        {
          "internalType": "uint256",
          "name": "yesCount",
          "type": "uint256"
        },
        {
          "internalType": "uint256",
          "name": "noCount",
          "type": "uint256"
        }
      ],
      "stateMutability": "view",
      "type": "function"
    },
    {
      "inputs": [],
      "name": "proposer",
      "outputs": [
        {
          "internalType": "address",
          "name": "",
          "type": "address"
        }
      ],
      "stateMutability": "view",
      "type": "function"
    },
    {
      "inputs": [
        {
          "internalType": "uint256",
          "name": "numberOfProposal",
          "type": "uint256"
        }
      ],
      "name": "result",
      "outputs": [],
      "stateMutability": "nonpayable",
      "type": "function"
    },
    {
      "inputs": [
        {
          "internalType": "uint256",
          "name": "numberOfProposal",
          "type": "uint256"
        },
        {
          "internalType": "uint256",
          "name": "votes",
          "type": "uint256"
        },
        {
          "internalType": "bool",
          "name": "yes",
          "type": "bool"
        }
      ],
      "name": "vote",
      "outputs": [],
      "stateMutability": "nonpayable",
      "type": "function"
    },
    {
      "inputs": [],
      "name": "voteToken",
      "outputs": [
        {
          "internalType": "contract IERC20WithPermit",
          "name": "",
          "type": "address"
        }
      ],
      "stateMutability": "view",
      "type": "function"
    },
    {
      "inputs": [
        {
          "internalType": "uint256",
          "name": "numberOfProposal",
          "type": "uint256"
        }
      ],
      "name": "withdraw",
      "outputs": [],
      "stateMutability": "nonpayable",
      "type": "function"
    }
  ],
  "bytecode": "0x6101606040526000600360146101000a81548160ff0219169083151502179055503480156200002d57600080fd5b5060405162003d2a38038062003d2a8339818101604052810190620000539190620004e8565b806040518060400160405280600181526020017f3100000000000000000000000000000000000000000000000000000000000000815250620000a0600083620001c460201b90919060201c565b6101208181525050620000be600182620001c460201b90919060201c565b6101408181525050818051906020012060e08181525050808051906020012061010081815250504660a08181525050620000fd6200021c60201b60201c565b608081815250503073ffffffffffffffffffffffffffffffffffffffff1660c08173ffffffffffffffffffffffffffffffffffffffff1681525050505081600560006101000a81548173ffffffffffffffffffffffffffffffffffffffff021916908373ffffffffffffffffffffffffffffffffffffffff16021790555033600360006101000a81548173ffffffffffffffffffffffffffffffffffffffff021916908373ffffffffffffffffffffffffffffffffffffffff160217905550505062000a32565b6000602083511015620001ea57620001e2836200027960201b60201c565b905062000216565b82620001fc83620002e660201b60201c565b60000190816200020d919062000799565b5060ff60001b90505b92915050565b60007f8b73c3c69bb8fe3d512ecc4cf759cc79239f7b179b0ffacaa9a75d522b39400f60e0516101005146306040516020016200025e959493929190620008bd565b60405160208183030381529060405280519060200120905090565b600080829050601f81511115620002c957826040517f305a27a9000000000000000000000000000000000000000000000000000000008152600401620002c091906200096c565b60405180910390fd5b805181620002d790620009c2565b60001c1760001b915050919050565b6000819050919050565b6000604051905090565b600080fd5b600080fd5b600073ffffffffffffffffffffffffffffffffffffffff82169050919050565b6000620003318262000304565b9050919050565b620003438162000324565b81146200034f57600080fd5b50565b600081519050620003638162000338565b92915050565b600080fd5b600080fd5b6000601f19601f8301169050919050565b7f4e487b7100000000000000000000000000000000000000000000000000000000600052604160045260246000fd5b620003be8262000373565b810181811067ffffffffffffffff82111715620003e057620003df62000384565b5b80604052505050565b6000620003f5620002f0565b9050620004038282620003b3565b919050565b600067ffffffffffffffff82111562000426576200042562000384565b5b620004318262000373565b9050602081019050919050565b60005b838110156200045e57808201518184015260208101905062000441565b60008484015250505050565b6000620004816200047b8462000408565b620003e9565b905082815260208101848484011115620004a0576200049f6200036e565b5b620004ad8482856200043e565b509392505050565b600082601f830112620004cd57620004cc62000369565b5b8151620004df8482602086016200046a565b91505092915050565b60008060408385031215620005025762000501620002fa565b5b6000620005128582860162000352565b925050602083015167ffffffffffffffff811115620005365762000535620002ff565b5b6200054485828601620004b5565b9150509250929050565b600081519050919050565b7f4e487b7100000000000000000000000000000000000000000000000000000000600052602260045260246000fd5b60006002820490506001821680620005a157607f821691505b602082108103620005b757620005b662000559565b5b50919050565b60008190508160005260206000209050919050565b60006020601f8301049050919050565b600082821b905092915050565b600060088302620006217fffffffffffffffffffffffffffffffffffffffffffffffffffffffffffffffff82620005e2565b6200062d8683620005e2565b95508019841693508086168417925050509392505050565b6000819050919050565b6000819050919050565b60006200067a620006746200066e8462000645565b6200064f565b62000645565b9050919050565b6000819050919050565b620006968362000659565b620006ae620006a58262000681565b848454620005ef565b825550505050565b600090565b620006c5620006b6565b620006d28184846200068b565b505050565b5b81811015620006fa57620006ee600082620006bb565b600181019050620006d8565b5050565b601f82111562000749576200071381620005bd565b6200071e84620005d2565b810160208510156200072e578190505b620007466200073d85620005d2565b830182620006d7565b50505b505050565b600082821c905092915050565b60006200076e600019846008026200074e565b1980831691505092915050565b60006200078983836200075b565b9150826002028217905092915050565b620007a4826200054e565b67ffffffffffffffff811115620007c057620007bf62000384565b5b620007cc825462000588565b620007d9828285620006fe565b600060209050601f831160018114620008115760008415620007fc578287015190505b6200080885826200077b565b86555062000878565b601f1984166200082186620005bd565b60005b828110156200084b5784890151825560018201915060208501945060208101905062000824565b868310156200086b578489015162000867601f8916826200075b565b8355505b6001600288020188555050505b505050505050565b6000819050919050565b620008958162000880565b82525050565b620008a68162000645565b82525050565b620008b78162000324565b82525050565b600060a082019050620008d460008301886200088a565b620008e360208301876200088a565b620008f260408301866200088a565b6200090160608301856200089b565b620009106080830184620008ac565b9695505050505050565b600082825260208201905092915050565b600062000938826200054e565b6200094481856200091a565b9350620009568185602086016200043e565b620009618162000373565b840191505092915050565b600060208201905081810360008301526200098881846200092b565b905092915050565b600081519050919050565b6000819050602082019050919050565b6000620009b9825162000880565b80915050919050565b6000620009cf8262000990565b82620009db846200099b565b9050620009e881620009ab565b9250602082101562000a2b5762000a267fffffffffffffffffffffffffffffffffffffffffffffffffffffffffffffffff83602003600802620005e2565b831692505b5050919050565b60805160a05160c05160e05161010051610120516101405161329d62000a8d600039600061124a015260006112160152600061229c0152600061227b01526000611eca01526000611f2001526000611f49015261329d6000f3fe608060405234801561001057600080fd5b50600436106100ea5760003560e01c80637ecebe001161008c578063c32946f111610066578063c32946f11461023e578063cf3090121461026e578063d2a8982e1461028c578063dbaef5e0146102a8576100ea565b80637ecebe00146101cc57806384b0196e146101fc578063a8e4fb9014610220576100ea565b80632e1a7d4d116100c85780632e1a7d4d1461015c5780633c594059146101785780636a18ff7a1461019457806372d5fe21146101b0576100ea565b8063013cf08b146100ef5780630185921e14610122578063160d66ae1461013e575b600080fd5b61010960048036038101906101049190612327565b6102c4565b604051610119949392919061237c565b60405180910390f35b61013c6004803603810190610137919061241f565b610304565b005b610146610644565b60405161015391906124d1565b60405180910390f35b61017660048036038101906101719190612327565b61066a565b005b610192600480360381019061018d9190612327565b610b4e565b005b6101ae60048036038101906101a99190612524565b610dbb565b005b6101ca60048036038101906101c59190612577565b61108c565b005b6101e660048036038101906101e19190612577565b6111ba565b6040516101f391906125a4565b60405180910390f35b610204611203565b6040516102179796959493929190612757565b60405180910390f35b610228611305565b60405161023591906127db565b60405180910390f35b61025860048036038101906102539190612822565b61132b565b60405161026591906125a4565b60405180910390f35b610276611518565b6040516102839190612871565b60405180910390f35b6102a660048036038101906102a19190612524565b61152b565b005b6102c260048036038101906102bd91906128c5565b6117ec565b005b600481815481106102d457600080fd5b90600052602060002090600402016000915090508060000154908060010154908060020154908060030154905084565b600360149054906101000a900460ff1615610354576040517f08c379a000000000000000000000000000000000000000000000000000000000815260040161034b906129c7565b60405180910390fd5b6001600360146101000a81548160ff02191690831515021790555080600560009054906101000a900473ffffffffffffffffffffffffffffffffffffffff1673ffffffffffffffffffffffffffffffffffffffff166370a08231336040518263ffffffff1660e01b81526004016103cb91906127db565b602060405180830381865afa1580156103e8573d6000803e3d6000fd5b505050506040513d601f19601f8201168201806040525081019061040c91906129fc565b101561044d576040517f08c379a000000000000000000000000000000000000000000000000000000000815260040161044490612a75565b60405180910390fd5b600560009054906101000a900473ffffffffffffffffffffffffffffffffffffffff1673ffffffffffffffffffffffffffffffffffffffff166323b872dd3330846040518463ffffffff1660e01b81526004016104ac93929190612a95565b6020604051808303816000875af11580156104cb573d6000803e3d6000fd5b505050506040513d601f19601f820116820180604052508101906104ef9190612ae1565b50806007600084815260200190815260200160002060003373ffffffffffffffffffffffffffffffffffffffff1673ffffffffffffffffffffffffffffffffffffffff16815260200190815260200160002060008282546105509190612b3d565b92505081905550806008600084815260200190815260200160002060008573ffffffffffffffffffffffffffffffffffffffff1673ffffffffffffffffffffffffffffffffffffffff16815260200190815260200160002060008282546105b79190612b3d565b92505081905550818373ffffffffffffffffffffffffffffffffffffffff163373ffffffffffffffffffffffffffffffffffffffff167f24d7bda8602b916d64417f0dbfe2e2e88ec9b1157bd9f596dfdb91ba26624e048460405161061c91906125a4565b60405180910390a46000600360146101000a81548160ff021916908315150217905550505050565b600560009054906101000a900473ffffffffffffffffffffffffffffffffffffffff1681565b600360149054906101000a900460ff16156106ba576040517f08c379a00000000000000000000000000000000000000000000000000000000081526004016106b1906129c7565b60405180910390fd5b6001600360146101000a81548160ff02191690831515021790555043600482815481106106ea576106e9612b71565b5b9060005260206000209060040201600101541061073c576040517f08c379a000000000000000000000000000000000000000000000000000000000815260040161073390612bec565b60405180910390fd5b60006006600083815260200190815260200160002060003373ffffffffffffffffffffffffffffffffffffffff1673ffffffffffffffffffffffffffffffffffffffff16815260200190815260200160002054905060006006600084815260200190815260200160002060003373ffffffffffffffffffffffffffffffffffffffff1673ffffffffffffffffffffffffffffffffffffffff1681526020019081526020016000208190555060006007600084815260200190815260200160002060003373ffffffffffffffffffffffffffffffffffffffff1673ffffffffffffffffffffffffffffffffffffffff16815260200190815260200160002054905060006007600085815260200190815260200160002060003373ffffffffffffffffffffffffffffffffffffffff1673ffffffffffffffffffffffffffffffffffffffff16815260200190815260200160002081905550600560009054906101000a900473ffffffffffffffffffffffffffffffffffffffff1673ffffffffffffffffffffffffffffffffffffffff166370a08231306040518263ffffffff1660e01b81526004016108ed91906127db565b602060405180830381865afa15801561090a573d6000803e3d6000fd5b505050506040513d601f19601f8201168201806040525081019061092e91906129fc565b818361093a9190612b3d565b10156109f157600560009054906101000a900473ffffffffffffffffffffffffffffffffffffffff1673ffffffffffffffffffffffffffffffffffffffff1663a9059cbb33838561098b9190612b3d565b6040518363ffffffff1660e01b81526004016109a8929190612c0c565b6020604051808303816000875af11580156109c7573d6000803e3d6000fd5b505050506040513d601f19601f820116820180604052508101906109eb9190612ae1565b50610b2e565b600560009054906101000a900473ffffffffffffffffffffffffffffffffffffffff1673ffffffffffffffffffffffffffffffffffffffff1663a9059cbb33600560009054906101000a900473ffffffffffffffffffffffffffffffffffffffff1673ffffffffffffffffffffffffffffffffffffffff166370a08231306040518263ffffffff1660e01b8152600401610a8b91906127db565b602060405180830381865afa158015610aa8573d6000803e3d6000fd5b505050506040513d601f19601f82011682018060405250810190610acc91906129fc565b6040518363ffffffff1660e01b8152600401610ae9929190612c0c565b6020604051808303816000875af1158015610b08573d6000803e3d6000fd5b505050506040513d601f19601f82011682018060405250810190610b2c9190612ae1565b505b50506000600360146101000a81548160ff02191690831515021790555050565b600360149054906101000a900460ff1615610b9e576040517f08c379a0000000000000000000000000000000000000000000000000000000008152600401610b95906129c7565b60405180910390fd5b6001600360146101000a81548160ff0219169083151502179055504360048281548110610bce57610bcd612b71565b5b90600052602060002090600402016001015410610c20576040517f08c379a0000000000000000000000000000000000000000000000000000000008152600401610c1790612c81565b60405180910390fd5b600060048281548110610c3657610c35612b71565b5b9060005260206000209060040201600201549050600060048381548110610c6057610c5f612b71565b5b90600052602060002090600402016003015490506002600560009054906101000a900473ffffffffffffffffffffffffffffffffffffffff1673ffffffffffffffffffffffffffffffffffffffff166318160ddd6040518163ffffffff1660e01b8152600401602060405180830381865afa158015610ce3573d6000803e3d6000fd5b505050506040513d601f19601f82011682018060405250810190610d0791906129fc565b610d119190612cd0565b8183610d1d9190612b3d565b11610d5457827f115ff2b53344540aa29668a0dd1e2b307acc8fa3a5c5fb24a50f3f6b5abbab3360405160405180910390a2610d9b565b6000818311610d64576000610d67565b60015b9050801515847fe2b799ea4a13426272a42b36bd07c3d53585843c190f49aa9f43663e34e56adb60405160405180910390a3505b50506000600360146101000a81548160ff02191690831515021790555050565b600360149054906101000a900460ff1615610e0b576040517f08c379a0000000000000000000000000000000000000000000000000000000008152600401610e02906129c7565b60405180910390fd5b6001600360146101000a81548160ff0219169083151502179055504360048481548110610e3b57610e3a612b71565b5b90600052602060002090600402016001015411610e8d576040517f08c379a0000000000000000000000000000000000000000000000000000000008152600401610e8490612d4d565b60405180910390fd5b600560009054906101000a900473ffffffffffffffffffffffffffffffffffffffff1673ffffffffffffffffffffffffffffffffffffffff166323b872dd3330856040518463ffffffff1660e01b8152600401610eec93929190612a95565b6020604051808303816000875af1158015610f0b573d6000803e3d6000fd5b505050506040513d601f19601f82011682018060405250810190610f2f9190612ae1565b50816006600085815260200190815260200160002060003373ffffffffffffffffffffffffffffffffffffffff1673ffffffffffffffffffffffffffffffffffffffff1681526020019081526020016000206000828254610f909190612b3d565b925050819055508015610fde578160048481548110610fb257610fb1612b71565b5b90600052602060002090600402016002016000828254610fd29190612b3d565b9250508190555061101b565b8160048481548110610ff357610ff2612b71565b5b906000526020600020906004020160030160008282546110139190612b3d565b925050819055505b3373ffffffffffffffffffffffffffffffffffffffff16837fb7086a9dd618ffa688aa9500720dfe31d3b288daba445664cecceaed4a1562c38484604051611064929190612d6d565b60405180910390a36000600360146101000a81548160ff021916908315150217905550505050565b600360009054906101000a900473ffffffffffffffffffffffffffffffffffffffff1673ffffffffffffffffffffffffffffffffffffffff163373ffffffffffffffffffffffffffffffffffffffff161461111c576040517f08c379a000000000000000000000000000000000000000000000000000000000815260040161111390612de2565b60405180910390fd5b80600360006101000a81548173ffffffffffffffffffffffffffffffffffffffff021916908373ffffffffffffffffffffffffffffffffffffffff1602179055508073ffffffffffffffffffffffffffffffffffffffff163373ffffffffffffffffffffffffffffffffffffffff167f9d08cbd7144cc5f00fb3600ea1690d6d3863a90fdaa046eaaef0aa4a4f19e74560405160405180910390a350565b6000600260008373ffffffffffffffffffffffffffffffffffffffff1673ffffffffffffffffffffffffffffffffffffffff168152602001908152602001600020549050919050565b60006060806000806000606061124360007f00000000000000000000000000000000000000000000000000000000000000006119c590919063ffffffff16565b61127760017f00000000000000000000000000000000000000000000000000000000000000006119c590919063ffffffff16565b46306000801b600067ffffffffffffffff81111561129857611297612e02565b5b6040519080825280602002602001820160405280156112c65781602001602082028036833780820191505090505b507f0f00000000000000000000000000000000000000000000000000000000000000959493929190965096509650965096509650965090919293949596565b600360009054906101000a900473ffffffffffffffffffffffffffffffffffffffff1681565b6000600360009054906101000a900473ffffffffffffffffffffffffffffffffffffffff1673ffffffffffffffffffffffffffffffffffffffff163373ffffffffffffffffffffffffffffffffffffffff16146113bd576040517f08c379a00000000000000000000000000000000000000000000000000000000081526004016113b490612de2565b60405180910390fd5b600360149054906101000a900460ff161561140d576040517f08c379a0000000000000000000000000000000000000000000000000000000008152600401611404906129c7565b60405180910390fd5b6001600360146101000a81548160ff0219169083151502179055506004604051806080016040528085815260200184436114479190612b3d565b8152602001600081526020016000815250908060018154018082558091505060019003906000526020600020906004020160009091909190915060008201518160000155602082015181600101556040820151816002015560608201518160030155505060016004805490506114bd9190612e31565b9050807f115a4d53548a4c8fe1f5139d688b5fb8c230b41e28faef80d1562af2e49f6b19836040516114ef91906125a4565b60405180910390a26000600360146101000a81548160ff02191690831515021790555092915050565b600360149054906101000a900460ff1681565b600360149054906101000a900460ff161561157b576040517f08c379a0000000000000000000000000000000000000000000000000000000008152600401611572906129c7565b60405180910390fd5b6001600360146101000a81548160ff02191690831515021790555043600484815481106115ab576115aa612b71565b5b906000526020600020906004020160010154116115fd576040517f08c379a00000000000000000000000000000000000000000000000000000000081526004016115f490612eb1565b60405180910390fd5b6008600084815260200190815260200160002060003373ffffffffffffffffffffffffffffffffffffffff1673ffffffffffffffffffffffffffffffffffffffff16815260200190815260200160002054821115611690576040517f08c379a000000000000000000000000000000000000000000000000000000000815260040161168790612f1d565b60405180910390fd5b816008600085815260200190815260200160002060003373ffffffffffffffffffffffffffffffffffffffff1673ffffffffffffffffffffffffffffffffffffffff16815260200190815260200160002060008282546116f09190612e31565b92505081905550801561173e57816004848154811061171257611711612b71565b5b906000526020600020906004020160020160008282546117329190612b3d565b9250508190555061177b565b816004848154811061175357611752612b71565b5b906000526020600020906004020160030160008282546117739190612b3d565b925050819055505b3373ffffffffffffffffffffffffffffffffffffffff16837f73e5cd39c2e2595bc9bc19c2ec2204bb34aadacc496b18f19317cc922071256f84846040516117c4929190612d6d565b60405180910390a36000600360146101000a81548160ff021916908315150217905550505050565b8342111561183157836040517f6279130200000000000000000000000000000000000000000000000000000000815260040161182891906125a4565b60405180910390fd5b60007f6fe4546198af5612ba19a854b11a85b6e494a030bc4f596d8e9ae20f2438dafa8989886118608d611a75565b8960405160200161187696959493929190612f3d565b604051602081830303815290604052805190602001209050600061189982611acc565b905060006118a982878787611ae6565b90508a73ffffffffffffffffffffffffffffffffffffffff168173ffffffffffffffffffffffffffffffffffffffff161461191d57808b6040517f4b800e46000000000000000000000000000000000000000000000000000000008152600401611914929190612f9e565b60405180910390fd5b600560009054906101000a900473ffffffffffffffffffffffffffffffffffffffff1673ffffffffffffffffffffffffffffffffffffffff1663f66016c08c8a6040518363ffffffff1660e01b815260040161197a929190612c0c565b600060405180830381600087803b15801561199457600080fd5b505af11580156119a8573d6000803e3d6000fd5b505050506119b88b8b8b8b611b11565b5050505050505050505050565b606060ff60001b83146119e2576119db83611e52565b9050611a6f565b8180546119ee90612ff6565b80601f0160208091040260200160405190810160405280929190818152602001828054611a1a90612ff6565b8015611a675780601f10611a3c57610100808354040283529160200191611a67565b820191906000526020600020905b815481529060010190602001808311611a4a57829003601f168201915b505050505090505b92915050565b6000600260008373ffffffffffffffffffffffffffffffffffffffff1673ffffffffffffffffffffffffffffffffffffffff1681526020019081526020016000206000815480929190600101919050559050919050565b6000611adf611ad9611ec6565b83611f7d565b9050919050565b6000806000611af787878787611fbe565b91509150611b04816120a0565b8192505050949350505050565b600360149054906101000a900460ff1615611b61576040517f08c379a0000000000000000000000000000000000000000000000000000000008152600401611b58906129c7565b60405180910390fd5b6001600360146101000a81548160ff02191690831515021790555080600560009054906101000a900473ffffffffffffffffffffffffffffffffffffffff1673ffffffffffffffffffffffffffffffffffffffff166370a08231866040518263ffffffff1660e01b8152600401611bd891906127db565b602060405180830381865afa158015611bf5573d6000803e3d6000fd5b505050506040513d601f19601f82011682018060405250810190611c1991906129fc565b1015611c5a576040517f08c379a0000000000000000000000000000000000000000000000000000000008152600401611c5190612a75565b60405180910390fd5b600560009054906101000a900473ffffffffffffffffffffffffffffffffffffffff1673ffffffffffffffffffffffffffffffffffffffff166323b872dd8530846040518463ffffffff1660e01b8152600401611cb993929190612a95565b6020604051808303816000875af1158015611cd8573d6000803e3d6000fd5b505050506040513d601f19601f82011682018060405250810190611cfc9190612ae1565b50806007600084815260200190815260200160002060008673ffffffffffffffffffffffffffffffffffffffff1673ffffffffffffffffffffffffffffffffffffffff1681526020019081526020016000206000828254611d5d9190612b3d565b92505081905550806008600084815260200190815260200160002060008573ffffffffffffffffffffffffffffffffffffffff1673ffffffffffffffffffffffffffffffffffffffff1681526020019081526020016000206000828254611dc49190612b3d565b92505081905550818373ffffffffffffffffffffffffffffffffffffffff168573ffffffffffffffffffffffffffffffffffffffff167f9037ed43d5e3de59a29d8a757232e23343a19ff87d5f3d9316c4a6d87dd55b6f84604051611e2991906125a4565b60405180910390a46000600360146101000a81548160ff02191690831515021790555050505050565b60606000611e5f83612206565b90506000602067ffffffffffffffff811115611e7e57611e7d612e02565b5b6040519080825280601f01601f191660200182016040528015611eb05781602001600182028036833780820191505090505b5090508181528360208201528092505050919050565b60007f000000000000000000000000000000000000000000000000000000000000000073ffffffffffffffffffffffffffffffffffffffff163073ffffffffffffffffffffffffffffffffffffffff16148015611f4257507f000000000000000000000000000000000000000000000000000000000000000046145b15611f6f577f00000000000000000000000000000000000000000000000000000000000000009050611f7a565b611f77612256565b90505b90565b60006040517f190100000000000000000000000000000000000000000000000000000000000081528360028201528260228201526042812091505092915050565b6000807f7fffffffffffffffffffffffffffffff5d576e7357a4501ddfe92f46681b20a08360001c1115611ff9576000600391509150612097565b60006001878787876040516000815260200160405260405161201e9493929190613036565b6020604051602081039080840390855afa158015612040573d6000803e3d6000fd5b505050602060405103519050600073ffffffffffffffffffffffffffffffffffffffff168173ffffffffffffffffffffffffffffffffffffffff160361208e57600060019250925050612097565b80600092509250505b94509492505050565b600060048111156120b4576120b361307b565b5b8160048111156120c7576120c661307b565b5b031561220357600160048111156120e1576120e061307b565b5b8160048111156120f4576120f361307b565b5b03612134576040517f08c379a000000000000000000000000000000000000000000000000000000000815260040161212b906130f6565b60405180910390fd5b600260048111156121485761214761307b565b5b81600481111561215b5761215a61307b565b5b0361219b576040517f08c379a000000000000000000000000000000000000000000000000000000000815260040161219290613162565b60405180910390fd5b600360048111156121af576121ae61307b565b5b8160048111156121c2576121c161307b565b5b03612202576040517f08c379a00000000000000000000000000000000000000000000000000000000081526004016121f9906131f4565b60405180910390fd5b5b50565b60008060ff8360001c169050601f81111561224d576040517fb3512b0c00000000000000000000000000000000000000000000000000000000815260040160405180910390fd5b80915050919050565b60007f8b73c3c69bb8fe3d512ecc4cf759cc79239f7b179b0ffacaa9a75d522b39400f7f00000000000000000000000000000000000000000000000000000000000000007f000000000000000000000000000000000000000000000000000000000000000046306040516020016122d1959493929190613214565b60405160208183030381529060405280519060200120905090565b600080fd5b6000819050919050565b612304816122f1565b811461230f57600080fd5b50565b600081359050612321816122fb565b92915050565b60006020828403121561233d5761233c6122ec565b5b600061234b84828501612312565b91505092915050565b6000819050919050565b61236781612354565b82525050565b612376816122f1565b82525050565b6000608082019050612391600083018761235e565b61239e602083018661236d565b6123ab604083018561236d565b6123b8606083018461236d565b95945050505050565b600073ffffffffffffffffffffffffffffffffffffffff82169050919050565b60006123ec826123c1565b9050919050565b6123fc816123e1565b811461240757600080fd5b50565b600081359050612419816123f3565b92915050565b600080600060608486031215612438576124376122ec565b5b60006124468682870161240a565b935050602061245786828701612312565b925050604061246886828701612312565b9150509250925092565b6000819050919050565b600061249761249261248d846123c1565b612472565b6123c1565b9050919050565b60006124a98261247c565b9050919050565b60006124bb8261249e565b9050919050565b6124cb816124b0565b82525050565b60006020820190506124e660008301846124c2565b92915050565b60008115159050919050565b612501816124ec565b811461250c57600080fd5b50565b60008135905061251e816124f8565b92915050565b60008060006060848603121561253d5761253c6122ec565b5b600061254b86828701612312565b935050602061255c86828701612312565b925050604061256d8682870161250f565b9150509250925092565b60006020828403121561258d5761258c6122ec565b5b600061259b8482850161240a565b91505092915050565b60006020820190506125b9600083018461236d565b92915050565b60007fff0000000000000000000000000000000000000000000000000000000000000082169050919050565b6125f4816125bf565b82525050565b600081519050919050565b600082825260208201905092915050565b60005b83811015612634578082015181840152602081019050612619565b60008484015250505050565b6000601f19601f8301169050919050565b600061265c826125fa565b6126668185612605565b9350612676818560208601612616565b61267f81612640565b840191505092915050565b612693816123e1565b82525050565b600081519050919050565b600082825260208201905092915050565b6000819050602082019050919050565b6126ce816122f1565b82525050565b60006126e083836126c5565b60208301905092915050565b6000602082019050919050565b600061270482612699565b61270e81856126a4565b9350612719836126b5565b8060005b8381101561274a57815161273188826126d4565b975061273c836126ec565b92505060018101905061271d565b5085935050505092915050565b600060e08201905061276c600083018a6125eb565b818103602083015261277e8189612651565b905081810360408301526127928188612651565b90506127a1606083018761236d565b6127ae608083018661268a565b6127bb60a083018561235e565b81810360c08301526127cd81846126f9565b905098975050505050505050565b60006020820190506127f0600083018461268a565b92915050565b6127ff81612354565b811461280a57600080fd5b50565b60008135905061281c816127f6565b92915050565b60008060408385031215612839576128386122ec565b5b60006128478582860161280d565b925050602061285885828601612312565b9150509250929050565b61286b816124ec565b82525050565b60006020820190506128866000830184612862565b92915050565b600060ff82169050919050565b6128a28161288c565b81146128ad57600080fd5b50565b6000813590506128bf81612899565b92915050565b600080600080600080600080610100898b0312156128e6576128e56122ec565b5b60006128f48b828c0161240a565b98505060206129058b828c0161240a565b97505060406129168b828c01612312565b96505060606129278b828c01612312565b95505060806129388b828c01612312565b94505060a06129498b828c016128b0565b93505060c061295a8b828c0161280d565b92505060e061296b8b828c0161280d565b9150509295985092959890939650565b7f4e6f6e5265656e74726163743a206c6f636b6564000000000000000000000000600082015250565b60006129b1601483612605565b91506129bc8261297b565b602082019050919050565b600060208201905081810360008301526129e0816129a4565b9050919050565b6000815190506129f6816122fb565b92915050565b600060208284031215612a1257612a116122ec565b5b6000612a20848285016129e7565b91505092915050565b7f44656c65676174653a206e6f7420656e6f7567687420746f6b656e7300000000600082015250565b6000612a5f601c83612605565b9150612a6a82612a29565b602082019050919050565b60006020820190508181036000830152612a8e81612a52565b9050919050565b6000606082019050612aaa600083018661268a565b612ab7602083018561268a565b612ac4604083018461236d565b949350505050565b600081519050612adb816124f8565b92915050565b600060208284031215612af757612af66122ec565b5b6000612b0584828501612acc565b91505092915050565b7f4e487b7100000000000000000000000000000000000000000000000000000000600052601160045260246000fd5b6000612b48826122f1565b9150612b53836122f1565b9250828201905080821115612b6b57612b6a612b0e565b5b92915050565b7f4e487b7100000000000000000000000000000000000000000000000000000000600052603260045260246000fd5b7f57697468647261773a20746f6f206561726c7900000000000000000000000000600082015250565b6000612bd6601383612605565b9150612be182612ba0565b602082019050919050565b60006020820190508181036000830152612c0581612bc9565b9050919050565b6000604082019050612c21600083018561268a565b612c2e602083018461236d565b9392505050565b7f526573756c743a20746f6f206561726c79000000000000000000000000000000600082015250565b6000612c6b601183612605565b9150612c7682612c35565b602082019050919050565b60006020820190508181036000830152612c9a81612c5e565b9050919050565b7f4e487b7100000000000000000000000000000000000000000000000000000000600052601260045260246000fd5b6000612cdb826122f1565b9150612ce6836122f1565b925082612cf657612cf5612ca1565b5b828204905092915050565b7f566f74653a20746f6f206c617465000000000000000000000000000000000000600082015250565b6000612d37600e83612605565b9150612d4282612d01565b602082019050919050565b60006020820190508181036000830152612d6681612d2a565b9050919050565b6000604082019050612d82600083018561236d565b612d8f6020830184612862565b9392505050565b7f4d6f6469666965723a20796f75277265206e6f742070726f706f736572000000600082015250565b6000612dcc601d83612605565b9150612dd782612d96565b602082019050919050565b60006020820190508181036000830152612dfb81612dbf565b9050919050565b7f4e487b7100000000000000000000000000000000000000000000000000000000600052604160045260246000fd5b6000612e3c826122f1565b9150612e47836122f1565b9250828203905081811115612e5f57612e5e612b0e565b5b92915050565b7f44656c6567617465566f74653a20746f6f206c61746500000000000000000000600082015250565b6000612e9b601683612605565b9150612ea682612e65565b602082019050919050565b60006020820190508181036000830152612eca81612e8e565b9050919050565b7f44656c656761746564566f74653a20746f6f206d616e7920766f746573000000600082015250565b6000612f07601d83612605565b9150612f1282612ed1565b602082019050919050565b60006020820190508181036000830152612f3681612efa565b9050919050565b600060c082019050612f52600083018961235e565b612f5f602083018861268a565b612f6c604083018761268a565b612f79606083018661236d565b612f86608083018561236d565b612f9360a083018461236d565b979650505050505050565b6000604082019050612fb3600083018561268a565b612fc0602083018461268a565b9392505050565b7f4e487b7100000000000000000000000000000000000000000000000000000000600052602260045260246000fd5b6000600282049050600182168061300e57607f821691505b60208210810361302157613020612fc7565b5b50919050565b6130308161288c565b82525050565b600060808201905061304b600083018761235e565b6130586020830186613027565b613065604083018561235e565b613072606083018461235e565b95945050505050565b7f4e487b7100000000000000000000000000000000000000000000000000000000600052602160045260246000fd5b7f45434453413a20696e76616c6964207369676e61747572650000000000000000600082015250565b60006130e0601883612605565b91506130eb826130aa565b602082019050919050565b6000602082019050818103600083015261310f816130d3565b9050919050565b7f45434453413a20696e76616c6964207369676e6174757265206c656e67746800600082015250565b600061314c601f83612605565b915061315782613116565b602082019050919050565b6000602082019050818103600083015261317b8161313f565b9050919050565b7f45434453413a20696e76616c6964207369676e6174757265202773272076616c60008201527f7565000000000000000000000000000000000000000000000000000000000000602082015250565b60006131de602283612605565b91506131e982613182565b604082019050919050565b6000602082019050818103600083015261320d816131d1565b9050919050565b600060a082019050613229600083018861235e565b613236602083018761235e565b613243604083018661235e565b613250606083018561236d565b61325d608083018461268a565b969550505050505056fea264697066735822122010c12c4bb6e4108596d4f53a18f708524bb660167e39f68032f69462ce30375b64736f6c63430008130033",
  "linkReferences": {},
  "deployedLinkReferences": {}
}