{
  "_format": "hh-sol-artifact-1",
  "contractName": "VotingWithDelegate",
  "sourceName": "contracts/VotingWithDelegate.sol",
  "abi": [
    {
      "inputs": [
        {
          "internalType": "address",
          "name": "voteTokenAddress",
          "type": "address"
        }
      ],
      "stateMutability": "nonpayable",
      "type": "constructor"
    },
    {
      "anonymous": false,
      "inputs": [
        {
          "indexed": true,
          "internalType": "uint256",
          "name": "_numberOfProposal",
          "type": "uint256"
        },
        {
          "indexed": true,
          "internalType": "address",
          "name": "_delegatedVoter",
          "type": "address"
        },
        {
          "indexed": false,
          "internalType": "uint256",
          "name": "_votes",
          "type": "uint256"
        },
        {
          "indexed": false,
          "internalType": "bool",
          "name": "_yes",
          "type": "bool"
        }
      ],
      "name": "DelegateVoted",
      "type": "event"
    },
    {
      "anonymous": false,
      "inputs": [
        {
          "indexed": true,
          "internalType": "address",
          "name": "_from",
          "type": "address"
        },
        {
          "indexed": true,
          "internalType": "address",
          "name": "_to",
          "type": "address"
        },
        {
          "indexed": true,
          "internalType": "uint256",
          "name": "_numberOfProposal",
          "type": "uint256"
        },
        {
          "indexed": false,
          "internalType": "uint256",
          "name": "_votes",
          "type": "uint256"
        }
      ],
      "name": "Delegated",
      "type": "event"
    },
    {
      "anonymous": false,
      "inputs": [
        {
          "indexed": true,
          "internalType": "address",
          "name": "_oldProposer",
          "type": "address"
        },
        {
          "indexed": true,
          "internalType": "address",
          "name": "_newProposer",
          "type": "address"
        }
      ],
      "name": "NewProposer",
      "type": "event"
    },
    {
      "anonymous": false,
      "inputs": [
        {
          "indexed": true,
          "internalType": "uint256",
          "name": "_numberOfProposal",
          "type": "uint256"
        }
      ],
      "name": "NoResult",
      "type": "event"
    },
    {
      "anonymous": false,
      "inputs": [
        {
          "indexed": true,
          "internalType": "uint256",
          "name": "_numberOfProposal",
          "type": "uint256"
        },
        {
          "indexed": false,
          "internalType": "uint256",
          "name": "_lastBlocks",
          "type": "uint256"
        }
      ],
      "name": "NowProposal",
      "type": "event"
    },
    {
      "anonymous": false,
      "inputs": [
        {
          "indexed": true,
          "internalType": "uint256",
          "name": "_numberOfProposal",
          "type": "uint256"
        },
        {
          "indexed": true,
          "internalType": "bool",
          "name": "_accepted",
          "type": "bool"
        }
      ],
      "name": "Result",
      "type": "event"
    },
    {
      "anonymous": false,
      "inputs": [
        {
          "indexed": true,
          "internalType": "uint256",
          "name": "_numberOfProposal",
          "type": "uint256"
        },
        {
          "indexed": true,
          "internalType": "address",
          "name": "_voter",
          "type": "address"
        },
        {
          "indexed": false,
          "internalType": "uint256",
          "name": "_votes",
          "type": "uint256"
        },
        {
          "indexed": false,
          "internalType": "bool",
          "name": "_yes",
          "type": "bool"
        }
      ],
      "name": "Voted",
      "type": "event"
    },
    {
      "inputs": [
        {
          "internalType": "address",
          "name": "_newProposer",
          "type": "address"
        }
      ],
      "name": "changeProposer",
      "outputs": [],
      "stateMutability": "nonpayable",
      "type": "function"
    },
    {
      "inputs": [
        {
          "internalType": "bytes32",
          "name": "_name",
          "type": "bytes32"
        },
        {
          "internalType": "uint256",
          "name": "lastBlocks",
          "type": "uint256"
        }
      ],
      "name": "createProposal",
      "outputs": [
        {
          "internalType": "uint256",
          "name": "numberOfProposal",
          "type": "uint256"
        }
      ],
      "stateMutability": "nonpayable",
      "type": "function"
    },
    {
      "inputs": [
        {
          "internalType": "address",
          "name": "to",
          "type": "address"
        },
        {
          "internalType": "uint256",
          "name": "numberOfProposal",
          "type": "uint256"
        },
        {
          "internalType": "uint256",
          "name": "votes",
          "type": "uint256"
        }
      ],
      "name": "delegate",
      "outputs": [],
      "stateMutability": "nonpayable",
      "type": "function"
    },
    {
      "inputs": [
        {
          "internalType": "uint256",
          "name": "numberOfProposal",
          "type": "uint256"
        },
        {
          "internalType": "uint256",
          "name": "votes",
          "type": "uint256"
        },
        {
          "internalType": "bool",
          "name": "yes",
          "type": "bool"
        }
      ],
      "name": "delegateVote",
      "outputs": [],
      "stateMutability": "nonpayable",
      "type": "function"
    },
    {
      "inputs": [],
      "name": "locked",
      "outputs": [
        {
          "internalType": "bool",
          "name": "",
          "type": "bool"
        }
      ],
      "stateMutability": "view",
      "type": "function"
    },
    {
      "inputs": [
        {
          "internalType": "uint256",
          "name": "",
          "type": "uint256"
        }
      ],
      "name": "proposals",
      "outputs": [
        {
          "internalType": "bytes32",
          "name": "name",
          "type": "bytes32"
        },
        {
          "internalType": "uint256",
          "name": "deadline",
          "type": "uint256"
        },
        {
          "internalType": "uint256",
          "name": "yesCount",
          "type": "uint256"
        },
        {
          "internalType": "uint256",
          "name": "noCount",
          "type": "uint256"
        }
      ],
      "stateMutability": "view",
      "type": "function"
    },
    {
      "inputs": [],
      "name": "proposer",
      "outputs": [
        {
          "internalType": "address",
          "name": "",
          "type": "address"
        }
      ],
      "stateMutability": "view",
      "type": "function"
    },
    {
      "inputs": [
        {
          "internalType": "uint256",
          "name": "numberOfProposal",
          "type": "uint256"
        }
      ],
      "name": "result",
      "outputs": [],
      "stateMutability": "nonpayable",
      "type": "function"
    },
    {
      "inputs": [
        {
          "internalType": "uint256",
          "name": "numberOfProposal",
          "type": "uint256"
        },
        {
          "internalType": "uint256",
          "name": "votes",
          "type": "uint256"
        },
        {
          "internalType": "bool",
          "name": "yes",
          "type": "bool"
        }
      ],
      "name": "vote",
      "outputs": [],
      "stateMutability": "nonpayable",
      "type": "function"
    },
    {
      "inputs": [],
      "name": "voteToken",
      "outputs": [
        {
          "internalType": "contract IERC20",
          "name": "",
          "type": "address"
        }
      ],
      "stateMutability": "view",
      "type": "function"
    },
    {
      "inputs": [
        {
          "internalType": "uint256",
          "name": "numberOfProposal",
          "type": "uint256"
        }
      ],
      "name": "withdraw",
      "outputs": [],
      "stateMutability": "nonpayable",
      "type": "function"
    }
  ],
  "bytecode": "0x608060405260008060146101000a81548160ff0219169083151502179055503480156200002b57600080fd5b50604051620020d4380380620020d4833981810160405281019062000051919062000143565b80600260006101000a81548173ffffffffffffffffffffffffffffffffffffffff021916908373ffffffffffffffffffffffffffffffffffffffff160217905550336000806101000a81548173ffffffffffffffffffffffffffffffffffffffff021916908373ffffffffffffffffffffffffffffffffffffffff1602179055505062000175565b600080fd5b600073ffffffffffffffffffffffffffffffffffffffff82169050919050565b60006200010b82620000de565b9050919050565b6200011d81620000fe565b81146200012957600080fd5b50565b6000815190506200013d8162000112565b92915050565b6000602082840312156200015c576200015b620000d9565b5b60006200016c848285016200012c565b91505092915050565b611f4f80620001856000396000f3fe608060405234801561001057600080fd5b50600436106100a95760003560e01c80636a18ff7a116100715780636a18ff7a1461015357806372d5fe211461016f578063a8e4fb901461018b578063c32946f1146101a9578063cf309012146101d9578063d2a8982e146101f7576100a9565b8063013cf08b146100ae5780630185921e146100e1578063160d66ae146100fd5780632e1a7d4d1461011b5780633c59405914610137575b600080fd5b6100c860048036038101906100c3919061161d565b610213565b6040516100d89493929190611672565b60405180910390f35b6100fb60048036038101906100f69190611715565b610253565b005b610105610592565b60405161011291906117c7565b60405180910390f35b6101356004803603810190610130919061161d565b6105b8565b005b610151600480360381019061014c919061161d565b610a9b565b005b61016d6004803603810190610168919061181a565b610d06565b005b6101896004803603810190610184919061186d565b610fd6565b005b610193611101565b6040516101a091906118a9565b60405180910390f35b6101c360048036038101906101be91906118f0565b611125565b6040516101d09190611930565b60405180910390f35b6101e161130f565b6040516101ee919061195a565b60405180910390f35b610211600480360381019061020c919061181a565b611322565b005b6001818154811061022357600080fd5b90600052602060002090600402016000915090508060000154908060010154908060020154908060030154905084565b600060149054906101000a900460ff16156102a3576040517f08c379a000000000000000000000000000000000000000000000000000000000815260040161029a906119d2565b60405180910390fd5b6001600060146101000a81548160ff02191690831515021790555080600260009054906101000a900473ffffffffffffffffffffffffffffffffffffffff1673ffffffffffffffffffffffffffffffffffffffff166370a08231336040518263ffffffff1660e01b815260040161031a91906118a9565b602060405180830381865afa158015610337573d6000803e3d6000fd5b505050506040513d601f19601f8201168201806040525081019061035b9190611a07565b101561039c576040517f08c379a000000000000000000000000000000000000000000000000000000000815260040161039390611a80565b60405180910390fd5b600260009054906101000a900473ffffffffffffffffffffffffffffffffffffffff1673ffffffffffffffffffffffffffffffffffffffff166323b872dd3330846040518463ffffffff1660e01b81526004016103fb93929190611aa0565b6020604051808303816000875af115801561041a573d6000803e3d6000fd5b505050506040513d601f19601f8201168201806040525081019061043e9190611aec565b50806004600084815260200190815260200160002060003373ffffffffffffffffffffffffffffffffffffffff1673ffffffffffffffffffffffffffffffffffffffff168152602001908152602001600020600082825461049f9190611b48565b92505081905550806005600084815260200190815260200160002060008573ffffffffffffffffffffffffffffffffffffffff1673ffffffffffffffffffffffffffffffffffffffff16815260200190815260200160002060008282546105069190611b48565b92505081905550818373ffffffffffffffffffffffffffffffffffffffff163373ffffffffffffffffffffffffffffffffffffffff167f24d7bda8602b916d64417f0dbfe2e2e88ec9b1157bd9f596dfdb91ba26624e048460405161056b9190611930565b60405180910390a460008060146101000a81548160ff021916908315150217905550505050565b600260009054906101000a900473ffffffffffffffffffffffffffffffffffffffff1681565b600060149054906101000a900460ff1615610608576040517f08c379a00000000000000000000000000000000000000000000000000000000081526004016105ff906119d2565b60405180910390fd5b6001600060146101000a81548160ff021916908315150217905550436001828154811061063857610637611b7c565b5b9060005260206000209060040201600101541061068a576040517f08c379a000000000000000000000000000000000000000000000000000000000815260040161068190611bf7565b60405180910390fd5b60006003600083815260200190815260200160002060003373ffffffffffffffffffffffffffffffffffffffff1673ffffffffffffffffffffffffffffffffffffffff16815260200190815260200160002054905060006003600084815260200190815260200160002060003373ffffffffffffffffffffffffffffffffffffffff1673ffffffffffffffffffffffffffffffffffffffff1681526020019081526020016000208190555060006004600084815260200190815260200160002060003373ffffffffffffffffffffffffffffffffffffffff1673ffffffffffffffffffffffffffffffffffffffff16815260200190815260200160002054905060006004600085815260200190815260200160002060003373ffffffffffffffffffffffffffffffffffffffff1673ffffffffffffffffffffffffffffffffffffffff16815260200190815260200160002081905550600260009054906101000a900473ffffffffffffffffffffffffffffffffffffffff1673ffffffffffffffffffffffffffffffffffffffff166370a08231306040518263ffffffff1660e01b815260040161083b91906118a9565b602060405180830381865afa158015610858573d6000803e3d6000fd5b505050506040513d601f19601f8201168201806040525081019061087c9190611a07565b81836108889190611b48565b101561093f57600260009054906101000a900473ffffffffffffffffffffffffffffffffffffffff1673ffffffffffffffffffffffffffffffffffffffff1663a9059cbb3383856108d99190611b48565b6040518363ffffffff1660e01b81526004016108f6929190611c17565b6020604051808303816000875af1158015610915573d6000803e3d6000fd5b505050506040513d601f19601f820116820180604052508101906109399190611aec565b50610a7c565b600260009054906101000a900473ffffffffffffffffffffffffffffffffffffffff1673ffffffffffffffffffffffffffffffffffffffff1663a9059cbb33600260009054906101000a900473ffffffffffffffffffffffffffffffffffffffff1673ffffffffffffffffffffffffffffffffffffffff166370a08231306040518263ffffffff1660e01b81526004016109d991906118a9565b602060405180830381865afa1580156109f6573d6000803e3d6000fd5b505050506040513d601f19601f82011682018060405250810190610a1a9190611a07565b6040518363ffffffff1660e01b8152600401610a37929190611c17565b6020604051808303816000875af1158015610a56573d6000803e3d6000fd5b505050506040513d601f19601f82011682018060405250810190610a7a9190611aec565b505b505060008060146101000a81548160ff02191690831515021790555050565b600060149054906101000a900460ff1615610aeb576040517f08c379a0000000000000000000000000000000000000000000000000000000008152600401610ae2906119d2565b60405180910390fd5b6001600060146101000a81548160ff0219169083151502179055504360018281548110610b1b57610b1a611b7c565b5b90600052602060002090600402016001015410610b6d576040517f08c379a0000000000000000000000000000000000000000000000000000000008152600401610b6490611c8c565b60405180910390fd5b600060018281548110610b8357610b82611b7c565b5b9060005260206000209060040201600201549050600060018381548110610bad57610bac611b7c565b5b906000526020600020906004020160030154905060028060009054906101000a900473ffffffffffffffffffffffffffffffffffffffff1673ffffffffffffffffffffffffffffffffffffffff166318160ddd6040518163ffffffff1660e01b8152600401602060405180830381865afa158015610c2f573d6000803e3d6000fd5b505050506040513d601f19601f82011682018060405250810190610c539190611a07565b610c5d9190611cdb565b8183610c699190611b48565b11610ca057827f115ff2b53344540aa29668a0dd1e2b307acc8fa3a5c5fb24a50f3f6b5abbab3360405160405180910390a2610ce7565b6000818311610cb0576000610cb3565b60015b9050801515847fe2b799ea4a13426272a42b36bd07c3d53585843c190f49aa9f43663e34e56adb60405160405180910390a3505b505060008060146101000a81548160ff02191690831515021790555050565b600060149054906101000a900460ff1615610d56576040517f08c379a0000000000000000000000000000000000000000000000000000000008152600401610d4d906119d2565b60405180910390fd5b6001600060146101000a81548160ff0219169083151502179055504360018481548110610d8657610d85611b7c565b5b90600052602060002090600402016001015411610dd8576040517f08c379a0000000000000000000000000000000000000000000000000000000008152600401610dcf90611d58565b60405180910390fd5b600260009054906101000a900473ffffffffffffffffffffffffffffffffffffffff1673ffffffffffffffffffffffffffffffffffffffff166323b872dd3330856040518463ffffffff1660e01b8152600401610e3793929190611aa0565b6020604051808303816000875af1158015610e56573d6000803e3d6000fd5b505050506040513d601f19601f82011682018060405250810190610e7a9190611aec565b50816003600085815260200190815260200160002060003373ffffffffffffffffffffffffffffffffffffffff1673ffffffffffffffffffffffffffffffffffffffff1681526020019081526020016000206000828254610edb9190611b48565b925050819055508015610f29578160018481548110610efd57610efc611b7c565b5b90600052602060002090600402016002016000828254610f1d9190611b48565b92505081905550610f66565b8160018481548110610f3e57610f3d611b7c565b5b90600052602060002090600402016003016000828254610f5e9190611b48565b925050819055505b3373ffffffffffffffffffffffffffffffffffffffff16837fb7086a9dd618ffa688aa9500720dfe31d3b288daba445664cecceaed4a1562c38484604051610faf929190611d78565b60405180910390a360008060146101000a81548160ff021916908315150217905550505050565b60008054906101000a900473ffffffffffffffffffffffffffffffffffffffff1673ffffffffffffffffffffffffffffffffffffffff163373ffffffffffffffffffffffffffffffffffffffff1614611064576040517f08c379a000000000000000000000000000000000000000000000000000000000815260040161105b90611ded565b60405180910390fd5b806000806101000a81548173ffffffffffffffffffffffffffffffffffffffff021916908373ffffffffffffffffffffffffffffffffffffffff1602179055508073ffffffffffffffffffffffffffffffffffffffff163373ffffffffffffffffffffffffffffffffffffffff167f9d08cbd7144cc5f00fb3600ea1690d6d3863a90fdaa046eaaef0aa4a4f19e74560405160405180910390a350565b60008054906101000a900473ffffffffffffffffffffffffffffffffffffffff1681565b60008060009054906101000a900473ffffffffffffffffffffffffffffffffffffffff1673ffffffffffffffffffffffffffffffffffffffff163373ffffffffffffffffffffffffffffffffffffffff16146111b6576040517f08c379a00000000000000000000000000000000000000000000000000000000081526004016111ad90611ded565b60405180910390fd5b600060149054906101000a900460ff1615611206576040517f08c379a00000000000000000000000000000000000000000000000000000000081526004016111fd906119d2565b60405180910390fd5b6001600060146101000a81548160ff0219169083151502179055506001604051806080016040528085815260200184436112409190611b48565b81526020016000815260200160008152509080600181540180825580915050600190039060005260206000209060040201600090919091909150600082015181600001556020820151816001015560408201518160020155606082015181600301555050600180805490506112b59190611e0d565b9050807f115a4d53548a4c8fe1f5139d688b5fb8c230b41e28faef80d1562af2e49f6b19836040516112e79190611930565b60405180910390a260008060146101000a81548160ff02191690831515021790555092915050565b600060149054906101000a900460ff1681565b600060149054906101000a900460ff1615611372576040517f08c379a0000000000000000000000000000000000000000000000000000000008152600401611369906119d2565b60405180910390fd5b6001600060146101000a81548160ff02191690831515021790555043600184815481106113a2576113a1611b7c565b5b906000526020600020906004020160010154116113f4576040517f08c379a00000000000000000000000000000000000000000000000000000000081526004016113eb90611e8d565b60405180910390fd5b6005600084815260200190815260200160002060003373ffffffffffffffffffffffffffffffffffffffff1673ffffffffffffffffffffffffffffffffffffffff16815260200190815260200160002054821115611487576040517f08c379a000000000000000000000000000000000000000000000000000000000815260040161147e90611ef9565b60405180910390fd5b816005600085815260200190815260200160002060003373ffffffffffffffffffffffffffffffffffffffff1673ffffffffffffffffffffffffffffffffffffffff16815260200190815260200160002060008282546114e79190611e0d565b92505081905550801561153557816001848154811061150957611508611b7c565b5b906000526020600020906004020160020160008282546115299190611b48565b92505081905550611572565b816001848154811061154a57611549611b7c565b5b9060005260206000209060040201600301600082825461156a9190611b48565b925050819055505b3373ffffffffffffffffffffffffffffffffffffffff16837f73e5cd39c2e2595bc9bc19c2ec2204bb34aadacc496b18f19317cc922071256f84846040516115bb929190611d78565b60405180910390a360008060146101000a81548160ff021916908315150217905550505050565b600080fd5b6000819050919050565b6115fa816115e7565b811461160557600080fd5b50565b600081359050611617816115f1565b92915050565b600060208284031215611633576116326115e2565b5b600061164184828501611608565b91505092915050565b6000819050919050565b61165d8161164a565b82525050565b61166c816115e7565b82525050565b60006080820190506116876000830187611654565b6116946020830186611663565b6116a16040830185611663565b6116ae6060830184611663565b95945050505050565b600073ffffffffffffffffffffffffffffffffffffffff82169050919050565b60006116e2826116b7565b9050919050565b6116f2816116d7565b81146116fd57600080fd5b50565b60008135905061170f816116e9565b92915050565b60008060006060848603121561172e5761172d6115e2565b5b600061173c86828701611700565b935050602061174d86828701611608565b925050604061175e86828701611608565b9150509250925092565b6000819050919050565b600061178d611788611783846116b7565b611768565b6116b7565b9050919050565b600061179f82611772565b9050919050565b60006117b182611794565b9050919050565b6117c1816117a6565b82525050565b60006020820190506117dc60008301846117b8565b92915050565b60008115159050919050565b6117f7816117e2565b811461180257600080fd5b50565b600081359050611814816117ee565b92915050565b600080600060608486031215611833576118326115e2565b5b600061184186828701611608565b935050602061185286828701611608565b925050604061186386828701611805565b9150509250925092565b600060208284031215611883576118826115e2565b5b600061189184828501611700565b91505092915050565b6118a3816116d7565b82525050565b60006020820190506118be600083018461189a565b92915050565b6118cd8161164a565b81146118d857600080fd5b50565b6000813590506118ea816118c4565b92915050565b60008060408385031215611907576119066115e2565b5b6000611915858286016118db565b925050602061192685828601611608565b9150509250929050565b60006020820190506119456000830184611663565b92915050565b611954816117e2565b82525050565b600060208201905061196f600083018461194b565b92915050565b600082825260208201905092915050565b7f4e6f6e5265656e74726163743a206c6f636b6564000000000000000000000000600082015250565b60006119bc601483611975565b91506119c782611986565b602082019050919050565b600060208201905081810360008301526119eb816119af565b9050919050565b600081519050611a01816115f1565b92915050565b600060208284031215611a1d57611a1c6115e2565b5b6000611a2b848285016119f2565b91505092915050565b7f44656c65676174653a206e6f7420656e6f7567687420746f6b656e7300000000600082015250565b6000611a6a601c83611975565b9150611a7582611a34565b602082019050919050565b60006020820190508181036000830152611a9981611a5d565b9050919050565b6000606082019050611ab5600083018661189a565b611ac2602083018561189a565b611acf6040830184611663565b949350505050565b600081519050611ae6816117ee565b92915050565b600060208284031215611b0257611b016115e2565b5b6000611b1084828501611ad7565b91505092915050565b7f4e487b7100000000000000000000000000000000000000000000000000000000600052601160045260246000fd5b6000611b53826115e7565b9150611b5e836115e7565b9250828201905080821115611b7657611b75611b19565b5b92915050565b7f4e487b7100000000000000000000000000000000000000000000000000000000600052603260045260246000fd5b7f57697468647261773a20746f6f206561726c7900000000000000000000000000600082015250565b6000611be1601383611975565b9150611bec82611bab565b602082019050919050565b60006020820190508181036000830152611c1081611bd4565b9050919050565b6000604082019050611c2c600083018561189a565b611c396020830184611663565b9392505050565b7f526573756c743a20746f6f206561726c79000000000000000000000000000000600082015250565b6000611c76601183611975565b9150611c8182611c40565b602082019050919050565b60006020820190508181036000830152611ca581611c69565b9050919050565b7f4e487b7100000000000000000000000000000000000000000000000000000000600052601260045260246000fd5b6000611ce6826115e7565b9150611cf1836115e7565b925082611d0157611d00611cac565b5b828204905092915050565b7f566f74653a20746f6f206c617465000000000000000000000000000000000000600082015250565b6000611d42600e83611975565b9150611d4d82611d0c565b602082019050919050565b60006020820190508181036000830152611d7181611d35565b9050919050565b6000604082019050611d8d6000830185611663565b611d9a602083018461194b565b9392505050565b7f4d6f6469666965723a20796f75277265206e6f742070726f706f736572000000600082015250565b6000611dd7601d83611975565b9150611de282611da1565b602082019050919050565b60006020820190508181036000830152611e0681611dca565b9050919050565b6000611e18826115e7565b9150611e23836115e7565b9250828203905081811115611e3b57611e3a611b19565b5b92915050565b7f44656c6567617465566f74653a20746f6f206c61746500000000000000000000600082015250565b6000611e77601683611975565b9150611e8282611e41565b602082019050919050565b60006020820190508181036000830152611ea681611e6a565b9050919050565b7f44656c656761746564566f74653a20746f6f206d616e7920766f746573000000600082015250565b6000611ee3601d83611975565b9150611eee82611ead565b602082019050919050565b60006020820190508181036000830152611f1281611ed6565b905091905056fea2646970667358221220c6f92220a1dc7e4b1ea5a0bf8f9593be7856e6e4e2a2a088abd7078e37adc0d364736f6c63430008130033",
  "linkReferences": {},
  "deployedLinkReferences": {}
}