{
  "_format": "hh-sol-artifact-1",
  "contractName": "SimpleVoting",
  "sourceName": "contracts/SimpleVoting.sol",
  "abi": [
    {
      "inputs": [
        {
          "internalType": "address",
          "name": "voteTokenAddress",
          "type": "address"
        }
      ],
      "stateMutability": "nonpayable",
      "type": "constructor"
    },
    {
      "anonymous": false,
      "inputs": [
        {
          "indexed": true,
          "internalType": "uint256",
          "name": "_numberOfProposal",
          "type": "uint256"
        }
      ],
      "name": "NoResult",
      "type": "event"
    },
    {
      "anonymous": false,
      "inputs": [
        {
          "indexed": true,
          "internalType": "uint256",
          "name": "_numberOfProposal",
          "type": "uint256"
        },
        {
          "indexed": false,
          "internalType": "uint256",
          "name": "_lastBlocks",
          "type": "uint256"
        }
      ],
      "name": "NowProposal",
      "type": "event"
    },
    {
      "anonymous": false,
      "inputs": [
        {
          "indexed": true,
          "internalType": "uint256",
          "name": "_numberOfProposal",
          "type": "uint256"
        },
        {
          "indexed": true,
          "internalType": "bool",
          "name": "_accepted",
          "type": "bool"
        }
      ],
      "name": "Result",
      "type": "event"
    },
    {
      "anonymous": false,
      "inputs": [
        {
          "indexed": true,
          "internalType": "uint256",
          "name": "_numberOfProposal",
          "type": "uint256"
        },
        {
          "indexed": true,
          "internalType": "address",
          "name": "_voter",
          "type": "address"
        },
        {
          "indexed": false,
          "internalType": "uint256",
          "name": "_votes",
          "type": "uint256"
        },
        {
          "indexed": false,
          "internalType": "bool",
          "name": "_yes",
          "type": "bool"
        }
      ],
      "name": "Voted",
      "type": "event"
    },
    {
      "inputs": [
        {
          "internalType": "bytes32",
          "name": "_name",
          "type": "bytes32"
        },
        {
          "internalType": "uint256",
          "name": "lastBlocks",
          "type": "uint256"
        }
      ],
      "name": "createProposal",
      "outputs": [
        {
          "internalType": "uint256",
          "name": "numberOfProposal",
          "type": "uint256"
        }
      ],
      "stateMutability": "nonpayable",
      "type": "function"
    },
    {
      "inputs": [],
      "name": "locked",
      "outputs": [
        {
          "internalType": "bool",
          "name": "",
          "type": "bool"
        }
      ],
      "stateMutability": "view",
      "type": "function"
    },
    {
      "inputs": [
        {
          "internalType": "uint256",
          "name": "",
          "type": "uint256"
        }
      ],
      "name": "proposals",
      "outputs": [
        {
          "internalType": "bytes32",
          "name": "name",
          "type": "bytes32"
        },
        {
          "internalType": "uint256",
          "name": "deadline",
          "type": "uint256"
        },
        {
          "internalType": "uint256",
          "name": "yesCount",
          "type": "uint256"
        },
        {
          "internalType": "uint256",
          "name": "noCount",
          "type": "uint256"
        }
      ],
      "stateMutability": "view",
      "type": "function"
    },
    {
      "inputs": [
        {
          "internalType": "uint256",
          "name": "numberOfProposal",
          "type": "uint256"
        }
      ],
      "name": "result",
      "outputs": [],
      "stateMutability": "nonpayable",
      "type": "function"
    },
    {
      "inputs": [
        {
          "internalType": "uint256",
          "name": "numberOfProposal",
          "type": "uint256"
        },
        {
          "internalType": "uint256",
          "name": "votes",
          "type": "uint256"
        },
        {
          "internalType": "bool",
          "name": "yes",
          "type": "bool"
        }
      ],
      "name": "vote",
      "outputs": [],
      "stateMutability": "nonpayable",
      "type": "function"
    },
    {
      "inputs": [],
      "name": "voteToken",
      "outputs": [
        {
          "internalType": "contract IERC20",
          "name": "",
          "type": "address"
        }
      ],
      "stateMutability": "view",
      "type": "function"
    },
    {
      "inputs": [
        {
          "internalType": "uint256",
          "name": "numberOfProposal",
          "type": "uint256"
        }
      ],
      "name": "withdraw",
      "outputs": [],
      "stateMutability": "nonpayable",
      "type": "function"
    }
  ],
  "bytecode": "0x608060405260008060006101000a81548160ff0219169083151502179055503480156200002b57600080fd5b506040516200163e3803806200163e833981810160405281019062000051919062000103565b80600260006101000a81548173ffffffffffffffffffffffffffffffffffffffff021916908373ffffffffffffffffffffffffffffffffffffffff1602179055505062000135565b600080fd5b600073ffffffffffffffffffffffffffffffffffffffff82169050919050565b6000620000cb826200009e565b9050919050565b620000dd81620000be565b8114620000e957600080fd5b50565b600081519050620000fd81620000d2565b92915050565b6000602082840312156200011c576200011b62000099565b5b60006200012c84828501620000ec565b91505092915050565b6114f980620001456000396000f3fe608060405234801561001057600080fd5b506004361061007d5760003560e01c80633c5940591161005b5780633c594059146100ef5780636a18ff7a1461010b578063c32946f114610127578063cf309012146101575761007d565b8063013cf08b14610082578063160d66ae146100b55780632e1a7d4d146100d3575b600080fd5b61009c60048036038101906100979190610db7565b610175565b6040516100ac9493929190610e0c565b60405180910390f35b6100bd6101b5565b6040516100ca9190610ed0565b60405180910390f35b6100ed60048036038101906100e89190610db7565b6101db565b005b61010960048036038101906101049190610db7565b6105f9565b005b61012560048036038101906101209190610f23565b610861565b005b610141600480360381019061013c9190610fa2565b610b2e565b60405161014e9190610fe2565b60405180910390f35b61015f610d6b565b60405161016c919061100c565b60405180910390f35b6001818154811061018557600080fd5b90600052602060002090600402016000915090508060000154908060010154908060020154908060030154905084565b600260009054906101000a900473ffffffffffffffffffffffffffffffffffffffff1681565b60008054906101000a900460ff1615610229576040517f08c379a000000000000000000000000000000000000000000000000000000000815260040161022090611084565b60405180910390fd5b60016000806101000a81548160ff0219169083151502179055504360018281548110610258576102576110a4565b5b906000526020600020906004020160010154106102aa576040517f08c379a00000000000000000000000000000000000000000000000000000000081526004016102a19061111f565b60405180910390fd5b60006003600083815260200190815260200160002060003373ffffffffffffffffffffffffffffffffffffffff1673ffffffffffffffffffffffffffffffffffffffff16815260200190815260200160002054905060006003600084815260200190815260200160002060003373ffffffffffffffffffffffffffffffffffffffff1673ffffffffffffffffffffffffffffffffffffffff16815260200190815260200160002081905550600260009054906101000a900473ffffffffffffffffffffffffffffffffffffffff1673ffffffffffffffffffffffffffffffffffffffff166370a08231306040518263ffffffff1660e01b81526004016103b09190611160565b602060405180830381865afa1580156103cd573d6000803e3d6000fd5b505050506040513d601f19601f820116820180604052508101906103f19190611190565b81101561049e57600260009054906101000a900473ffffffffffffffffffffffffffffffffffffffff1673ffffffffffffffffffffffffffffffffffffffff1663a9059cbb33836040518363ffffffff1660e01b81526004016104559291906111bd565b6020604051808303816000875af1158015610474573d6000803e3d6000fd5b505050506040513d601f19601f8201168201806040525081019061049891906111fb565b506105db565b600260009054906101000a900473ffffffffffffffffffffffffffffffffffffffff1673ffffffffffffffffffffffffffffffffffffffff1663a9059cbb33600260009054906101000a900473ffffffffffffffffffffffffffffffffffffffff1673ffffffffffffffffffffffffffffffffffffffff166370a08231306040518263ffffffff1660e01b81526004016105389190611160565b602060405180830381865afa158015610555573d6000803e3d6000fd5b505050506040513d601f19601f820116820180604052508101906105799190611190565b6040518363ffffffff1660e01b81526004016105969291906111bd565b6020604051808303816000875af11580156105b5573d6000803e3d6000fd5b505050506040513d601f19601f820116820180604052508101906105d991906111fb565b505b5060008060006101000a81548160ff02191690831515021790555050565b60008054906101000a900460ff1615610647576040517f08c379a000000000000000000000000000000000000000000000000000000000815260040161063e90611084565b60405180910390fd5b60016000806101000a81548160ff0219169083151502179055504360018281548110610676576106756110a4565b5b906000526020600020906004020160010154106106c8576040517f08c379a00000000000000000000000000000000000000000000000000000000081526004016106bf90611274565b60405180910390fd5b6000600182815481106106de576106dd6110a4565b5b9060005260206000209060040201600201549050600060018381548110610708576107076110a4565b5b906000526020600020906004020160030154905060028060009054906101000a900473ffffffffffffffffffffffffffffffffffffffff1673ffffffffffffffffffffffffffffffffffffffff166318160ddd6040518163ffffffff1660e01b8152600401602060405180830381865afa15801561078a573d6000803e3d6000fd5b505050506040513d601f19601f820116820180604052508101906107ae9190611190565b6107b891906112f2565b81836107c49190611323565b116107fb57827f115ff2b53344540aa29668a0dd1e2b307acc8fa3a5c5fb24a50f3f6b5abbab3360405160405180910390a2610842565b600081831161080b57600061080e565b60015b9050801515847fe2b799ea4a13426272a42b36bd07c3d53585843c190f49aa9f43663e34e56adb60405160405180910390a3505b505060008060006101000a81548160ff02191690831515021790555050565b60008054906101000a900460ff16156108af576040517f08c379a00000000000000000000000000000000000000000000000000000000081526004016108a690611084565b60405180910390fd5b60016000806101000a81548160ff02191690831515021790555043600184815481106108de576108dd6110a4565b5b90600052602060002090600402016001015411610930576040517f08c379a0000000000000000000000000000000000000000000000000000000008152600401610927906113a3565b60405180910390fd5b600260009054906101000a900473ffffffffffffffffffffffffffffffffffffffff1673ffffffffffffffffffffffffffffffffffffffff166323b872dd3330856040518463ffffffff1660e01b815260040161098f939291906113c3565b6020604051808303816000875af11580156109ae573d6000803e3d6000fd5b505050506040513d601f19601f820116820180604052508101906109d291906111fb565b50816003600085815260200190815260200160002060003373ffffffffffffffffffffffffffffffffffffffff1673ffffffffffffffffffffffffffffffffffffffff1681526020019081526020016000206000828254610a339190611323565b925050819055508015610a81578160018481548110610a5557610a546110a4565b5b90600052602060002090600402016002016000828254610a759190611323565b92505081905550610abe565b8160018481548110610a9657610a956110a4565b5b90600052602060002090600402016003016000828254610ab69190611323565b925050819055505b3373ffffffffffffffffffffffffffffffffffffffff16837fb7086a9dd618ffa688aa9500720dfe31d3b288daba445664cecceaed4a1562c38484604051610b079291906113fa565b60405180910390a360008060006101000a81548160ff021916908315150217905550505050565b6000678ac7230489e80000600260009054906101000a900473ffffffffffffffffffffffffffffffffffffffff1673ffffffffffffffffffffffffffffffffffffffff166370a08231336040518263ffffffff1660e01b8152600401610b949190611160565b602060405180830381865afa158015610bb1573d6000803e3d6000fd5b505050506040513d601f19601f82011682018060405250810190610bd59190611190565b11610c15576040517f08c379a0000000000000000000000000000000000000000000000000000000008152600401610c0c9061146f565b60405180910390fd5b60008054906101000a900460ff1615610c63576040517f08c379a0000000000000000000000000000000000000000000000000000000008152600401610c5a90611084565b60405180910390fd5b60016000806101000a81548160ff021916908315150217905550600160405180608001604052808581526020018443610c9c9190611323565b8152602001600081526020016000815250908060018154018082558091505060019003906000526020600020906004020160009091909190915060008201518160000155602082015181600101556040820151816002015560608201518160030155505060018080549050610d11919061148f565b9050807f115a4d53548a4c8fe1f5139d688b5fb8c230b41e28faef80d1562af2e49f6b1983604051610d439190610fe2565b60405180910390a260008060006101000a81548160ff02191690831515021790555092915050565b60008054906101000a900460ff1681565b600080fd5b6000819050919050565b610d9481610d81565b8114610d9f57600080fd5b50565b600081359050610db181610d8b565b92915050565b600060208284031215610dcd57610dcc610d7c565b5b6000610ddb84828501610da2565b91505092915050565b6000819050919050565b610df781610de4565b82525050565b610e0681610d81565b82525050565b6000608082019050610e216000830187610dee565b610e2e6020830186610dfd565b610e3b6040830185610dfd565b610e486060830184610dfd565b95945050505050565b600073ffffffffffffffffffffffffffffffffffffffff82169050919050565b6000819050919050565b6000610e96610e91610e8c84610e51565b610e71565b610e51565b9050919050565b6000610ea882610e7b565b9050919050565b6000610eba82610e9d565b9050919050565b610eca81610eaf565b82525050565b6000602082019050610ee56000830184610ec1565b92915050565b60008115159050919050565b610f0081610eeb565b8114610f0b57600080fd5b50565b600081359050610f1d81610ef7565b92915050565b600080600060608486031215610f3c57610f3b610d7c565b5b6000610f4a86828701610da2565b9350506020610f5b86828701610da2565b9250506040610f6c86828701610f0e565b9150509250925092565b610f7f81610de4565b8114610f8a57600080fd5b50565b600081359050610f9c81610f76565b92915050565b60008060408385031215610fb957610fb8610d7c565b5b6000610fc785828601610f8d565b9250506020610fd885828601610da2565b9150509250929050565b6000602082019050610ff76000830184610dfd565b92915050565b61100681610eeb565b82525050565b60006020820190506110216000830184610ffd565b92915050565b600082825260208201905092915050565b7f4e6f6e5265656e74726163743a206c6f636b6564000000000000000000000000600082015250565b600061106e601483611027565b915061107982611038565b602082019050919050565b6000602082019050818103600083015261109d81611061565b9050919050565b7f4e487b7100000000000000000000000000000000000000000000000000000000600052603260045260246000fd5b7f57697468647261773a20746f6f206561726c7900000000000000000000000000600082015250565b6000611109601383611027565b9150611114826110d3565b602082019050919050565b60006020820190508181036000830152611138816110fc565b9050919050565b600061114a82610e51565b9050919050565b61115a8161113f565b82525050565b60006020820190506111756000830184611151565b92915050565b60008151905061118a81610d8b565b92915050565b6000602082840312156111a6576111a5610d7c565b5b60006111b48482850161117b565b91505092915050565b60006040820190506111d26000830185611151565b6111df6020830184610dfd565b9392505050565b6000815190506111f581610ef7565b92915050565b60006020828403121561121157611210610d7c565b5b600061121f848285016111e6565b91505092915050565b7f526573756c743a20746f6f206561726c79000000000000000000000000000000600082015250565b600061125e601183611027565b915061126982611228565b602082019050919050565b6000602082019050818103600083015261128d81611251565b9050919050565b7f4e487b7100000000000000000000000000000000000000000000000000000000600052601260045260246000fd5b7f4e487b7100000000000000000000000000000000000000000000000000000000600052601160045260246000fd5b60006112fd82610d81565b915061130883610d81565b92508261131857611317611294565b5b828204905092915050565b600061132e82610d81565b915061133983610d81565b9250828201905080821115611351576113506112c3565b5b92915050565b7f566f74653a20746f6f206561726c790000000000000000000000000000000000600082015250565b600061138d600f83611027565b915061139882611357565b602082019050919050565b600060208201905081810360008301526113bc81611380565b9050919050565b60006060820190506113d86000830186611151565b6113e56020830185611151565b6113f26040830184610dfd565b949350505050565b600060408201905061140f6000830185610dfd565b61141c6020830184610ffd565b9392505050565b7f4d6f6469666965723a206e6f7420656e6f7567687420746f6b656e7300000000600082015250565b6000611459601c83611027565b915061146482611423565b602082019050919050565b600060208201905081810360008301526114888161144c565b9050919050565b600061149a82610d81565b91506114a583610d81565b92508282039050818111156114bd576114bc6112c3565b5b9291505056fea2646970667358221220038a95edaa1095fe4e63b5e03efa0ee2881fd8cb13089216168b6b15bb309a8264736f6c63430008130033",
  "linkReferences": {},
  "deployedLinkReferences": {}
}